{
  "contractName": "NFT",
  "abi": [
    {
      "inputs": [],
      "stateMutability": "nonpayable",
      "type": "constructor"
    },
    {
      "anonymous": false,
      "inputs": [
        {
          "indexed": true,
          "internalType": "address",
          "name": "owner",
          "type": "address"
        },
        {
          "indexed": true,
          "internalType": "address",
          "name": "approved",
          "type": "address"
        },
        {
          "indexed": true,
          "internalType": "uint256",
          "name": "tokenId",
          "type": "uint256"
        }
      ],
      "name": "Approval",
      "type": "event"
    },
    {
      "anonymous": false,
      "inputs": [
        {
          "indexed": true,
          "internalType": "address",
          "name": "owner",
          "type": "address"
        },
        {
          "indexed": true,
          "internalType": "address",
          "name": "operator",
          "type": "address"
        },
        {
          "indexed": false,
          "internalType": "bool",
          "name": "approved",
          "type": "bool"
        }
      ],
      "name": "ApprovalForAll",
      "type": "event"
    },
    {
      "anonymous": false,
      "inputs": [
        {
          "indexed": true,
          "internalType": "address",
          "name": "from",
          "type": "address"
        },
        {
          "indexed": true,
          "internalType": "address",
          "name": "to",
          "type": "address"
        },
        {
          "indexed": true,
          "internalType": "uint256",
          "name": "tokenId",
          "type": "uint256"
        }
      ],
      "name": "Transfer",
      "type": "event"
    },
    {
      "anonymous": false,
      "inputs": [
        {
          "indexed": false,
          "internalType": "uint256",
          "name": "mynum",
          "type": "uint256"
        }
      ],
      "name": "log",
      "type": "event"
    },
    {
      "inputs": [
        {
          "internalType": "address",
          "name": "to",
          "type": "address"
        },
        {
          "internalType": "uint256",
          "name": "tokenId",
          "type": "uint256"
        }
      ],
      "name": "approve",
      "outputs": [],
      "stateMutability": "nonpayable",
      "type": "function"
    },
    {
      "inputs": [
        {
          "internalType": "address",
          "name": "owner",
          "type": "address"
        }
      ],
      "name": "balanceOf",
      "outputs": [
        {
          "internalType": "uint256",
          "name": "",
          "type": "uint256"
        }
      ],
      "stateMutability": "view",
      "type": "function",
      "constant": true
    },
    {
      "inputs": [
        {
          "internalType": "uint256",
          "name": "tokenId",
          "type": "uint256"
        }
      ],
      "name": "getApproved",
      "outputs": [
        {
          "internalType": "address",
          "name": "",
          "type": "address"
        }
      ],
      "stateMutability": "view",
      "type": "function",
      "constant": true
    },
    {
      "inputs": [
        {
          "internalType": "address",
          "name": "owner",
          "type": "address"
        },
        {
          "internalType": "address",
          "name": "operator",
          "type": "address"
        }
      ],
      "name": "isApprovedForAll",
      "outputs": [
        {
          "internalType": "bool",
          "name": "",
          "type": "bool"
        }
      ],
      "stateMutability": "view",
      "type": "function",
      "constant": true
    },
    {
      "inputs": [],
      "name": "mynumber",
      "outputs": [
        {
          "internalType": "uint256",
          "name": "",
          "type": "uint256"
        }
      ],
      "stateMutability": "view",
      "type": "function",
      "constant": true
    },
    {
      "inputs": [],
      "name": "name",
      "outputs": [
        {
          "internalType": "string",
          "name": "",
          "type": "string"
        }
      ],
      "stateMutability": "view",
      "type": "function",
      "constant": true
    },
    {
      "inputs": [
        {
          "internalType": "uint256",
          "name": "tokenId",
          "type": "uint256"
        }
      ],
      "name": "ownerOf",
      "outputs": [
        {
          "internalType": "address",
          "name": "",
          "type": "address"
        }
      ],
      "stateMutability": "view",
      "type": "function",
      "constant": true
    },
    {
      "inputs": [
        {
          "internalType": "address",
          "name": "from",
          "type": "address"
        },
        {
          "internalType": "address",
          "name": "to",
          "type": "address"
        },
        {
          "internalType": "uint256",
          "name": "tokenId",
          "type": "uint256"
        }
      ],
      "name": "safeTransferFrom",
      "outputs": [],
      "stateMutability": "nonpayable",
      "type": "function"
    },
    {
      "inputs": [
        {
          "internalType": "address",
          "name": "from",
          "type": "address"
        },
        {
          "internalType": "address",
          "name": "to",
          "type": "address"
        },
        {
          "internalType": "uint256",
          "name": "tokenId",
          "type": "uint256"
        },
        {
          "internalType": "bytes",
          "name": "_data",
          "type": "bytes"
        }
      ],
      "name": "safeTransferFrom",
      "outputs": [],
      "stateMutability": "nonpayable",
      "type": "function"
    },
    {
      "inputs": [
        {
          "internalType": "address",
          "name": "operator",
          "type": "address"
        },
        {
          "internalType": "bool",
          "name": "approved",
          "type": "bool"
        }
      ],
      "name": "setApprovalForAll",
      "outputs": [],
      "stateMutability": "nonpayable",
      "type": "function"
    },
    {
      "inputs": [
        {
          "internalType": "bytes4",
          "name": "interfaceId",
          "type": "bytes4"
        }
      ],
      "name": "supportsInterface",
      "outputs": [
        {
          "internalType": "bool",
          "name": "",
          "type": "bool"
        }
      ],
      "stateMutability": "view",
      "type": "function",
      "constant": true
    },
    {
      "inputs": [],
      "name": "symbol",
      "outputs": [
        {
          "internalType": "string",
          "name": "",
          "type": "string"
        }
      ],
      "stateMutability": "view",
      "type": "function",
      "constant": true
    },
    {
      "inputs": [],
      "name": "tokenId",
      "outputs": [
        {
          "internalType": "uint256",
          "name": "",
          "type": "uint256"
        }
      ],
      "stateMutability": "view",
      "type": "function",
      "constant": true
    },
    {
      "inputs": [
        {
          "internalType": "uint256",
          "name": "tokenId",
          "type": "uint256"
        }
      ],
      "name": "tokenURI",
      "outputs": [
        {
          "internalType": "string",
          "name": "",
          "type": "string"
        }
      ],
      "stateMutability": "view",
      "type": "function",
      "constant": true
    },
    {
      "inputs": [
        {
          "internalType": "address",
          "name": "from",
          "type": "address"
        },
        {
          "internalType": "address",
          "name": "to",
          "type": "address"
        },
        {
          "internalType": "uint256",
          "name": "tokenId",
          "type": "uint256"
        }
      ],
      "name": "transferFrom",
      "outputs": [],
      "stateMutability": "nonpayable",
      "type": "function"
    },
    {
      "inputs": [],
      "name": "mint",
      "outputs": [
        {
          "internalType": "uint256",
          "name": "",
          "type": "uint256"
        }
      ],
      "stateMutability": "nonpayable",
      "type": "function"
    },
    {
      "inputs": [
        {
          "internalType": "uint256",
          "name": "mynuum",
          "type": "uint256"
        }
      ],
      "name": "enternum",
      "outputs": [
        {
          "internalType": "uint256",
          "name": "",
          "type": "uint256"
        }
      ],
      "stateMutability": "nonpayable",
      "type": "function"
    },
    {
      "inputs": [],
      "name": "myFunction",
      "outputs": [
        {
          "internalType": "uint256",
          "name": "",
          "type": "uint256"
        }
      ],
      "stateMutability": "nonpayable",
      "type": "function"
    }
  ],
  "bytecode": "0x6080604052600060065560006007553480156200001b57600080fd5b506040518060400160405280600b81526020017f436f6f6c657374204e46540000000000000000000000000000000000000000008152506040518060400160405280600381526020017f4e4654000000000000000000000000000000000000000000000000000000000081525081600090816200009991906200032e565b508060019081620000ab91906200032e565b50505062000415565b600081519050919050565b7f4e487b7100000000000000000000000000000000000000000000000000000000600052604160045260246000fd5b7f4e487b7100000000000000000000000000000000000000000000000000000000600052602260045260246000fd5b600060028204905060018216806200013657607f821691505b6020821081036200014c576200014b620000ee565b5b50919050565b60008190508160005260206000209050919050565b60006020601f8301049050919050565b600082821b905092915050565b600060088302620001b67fffffffffffffffffffffffffffffffffffffffffffffffffffffffffffffffff8262000177565b620001c2868362000177565b95508019841693508086168417925050509392505050565b6000819050919050565b6000819050919050565b60006200020f620002096200020384620001da565b620001e4565b620001da565b9050919050565b6000819050919050565b6200022b83620001ee565b620002436200023a8262000216565b84845462000184565b825550505050565b600090565b6200025a6200024b565b6200026781848462000220565b505050565b5b818110156200028f576200028360008262000250565b6001810190506200026d565b5050565b601f821115620002de57620002a88162000152565b620002b38462000167565b81016020851015620002c3578190505b620002db620002d28562000167565b8301826200026c565b50505b505050565b600082821c905092915050565b60006200030360001984600802620002e3565b1980831691505092915050565b60006200031e8383620002f0565b9150826002028217905092915050565b6200033982620000b4565b67ffffffffffffffff811115620003555762000354620000bf565b5b6200036182546200011d565b6200036e82828562000293565b600060209050601f831160018114620003a6576000841562000391578287015190505b6200039d858262000310565b8655506200040d565b601f198416620003b68662000152565b60005b82811015620003e057848901518255600182019150602085019450602081019050620003b9565b86831015620004005784890151620003fc601f891682620002f0565b8355505b6001600288020188555050505b505050505050565b6127cd80620004256000396000f3fe608060405234801561001057600080fd5b50600436106101165760003560e01c80636352211e116100a2578063a22cb46511610071578063a22cb465146102f5578063b88d4fde14610311578063c3780a3a1461032d578063c87b56dd1461034b578063e985e9c51461037b57610116565b80636352211e146102595780636bf789031461028957806370a08231146102a757806395d89b41146102d757610116565b80631249c58b116100e95780631249c58b146101b557806313c516fd146101d357806317d70f7c1461020357806323b872dd1461022157806342842e0e1461023d57610116565b806301ffc9a71461011b57806306fdde031461014b578063081812fc14610169578063095ea7b314610199575b600080fd5b61013560048036038101906101309190611752565b6103ab565b604051610142919061179a565b60405180910390f35b61015361048d565b604051610160919061184e565b60405180910390f35b610183600480360381019061017e91906118a6565b61051f565b6040516101909190611914565b60405180910390f35b6101b360048036038101906101ae919061195b565b6105a4565b005b6101bd6106bb565b6040516101ca91906119aa565b60405180910390f35b6101ed60048036038101906101e891906118a6565b6106e9565b6040516101fa91906119aa565b60405180910390f35b61020b6106fc565b60405161021891906119aa565b60405180910390f35b61023b600480360381019061023691906119c5565b610702565b005b610257600480360381019061025291906119c5565b610762565b005b610273600480360381019061026e91906118a6565b610782565b6040516102809190611914565b60405180910390f35b610291610833565b60405161029e91906119aa565b60405180910390f35b6102c160048036038101906102bc9190611a18565b610839565b6040516102ce91906119aa565b60405180910390f35b6102df6108f0565b6040516102ec919061184e565b60405180910390f35b61030f600480360381019061030a9190611a71565b610982565b005b61032b60048036038101906103269190611be6565b610998565b005b6103356109fa565b60405161034291906119aa565b60405180910390f35b610365600480360381019061036091906118a6565b610a04565b604051610372919061184e565b60405180910390f35b61039560048036038101906103909190611c69565b610aab565b6040516103a2919061179a565b60405180910390f35b60007f80ac58cd000000000000000000000000000000000000000000000000000000007bffffffffffffffffffffffffffffffffffffffffffffffffffffffff1916827bffffffffffffffffffffffffffffffffffffffffffffffffffffffff1916148061047657507f5b5e139f000000000000000000000000000000000000000000000000000000007bffffffffffffffffffffffffffffffffffffffffffffffffffffffff1916827bffffffffffffffffffffffffffffffffffffffffffffffffffffffff1916145b80610486575061048582610b3f565b5b9050919050565b60606000805461049c90611cd8565b80601f01602080910402602001604051908101604052809291908181526020018280546104c890611cd8565b80156105155780601f106104ea57610100808354040283529160200191610515565b820191906000526020600020905b8154815290600101906020018083116104f857829003601f168201915b5050505050905090565b600061052a82610ba9565b610569576040517f08c379a000000000000000000000000000000000000000000000000000000000815260040161056090611d7b565b60405180910390fd5b6004600083815260200190815260200160002060009054906101000a900473ffffffffffffffffffffffffffffffffffffffff169050919050565b60006105af82610782565b90508073ffffffffffffffffffffffffffffffffffffffff168373ffffffffffffffffffffffffffffffffffffffff160361061f576040517f08c379a000000000000000000000000000000000000000000000000000000000815260040161061690611e0d565b60405180910390fd5b8073ffffffffffffffffffffffffffffffffffffffff1661063e610c15565b73ffffffffffffffffffffffffffffffffffffffff16148061066d575061066c81610667610c15565b610aab565b5b6106ac576040517f08c379a00000000000000000000000000000000000000000000000000000000081526004016106a390611e9f565b60405180910390fd5b6106b68383610c1d565b505050565b6000600660008154809291906106d090611eee565b91905055506106e133600654610cd6565b600654905090565b6000816007819055506007549050919050565b60065481565b61071361070d610c15565b82610eaf565b610752576040517f08c379a000000000000000000000000000000000000000000000000000000000815260040161074990611fa8565b60405180910390fd5b61075d838383610f8d565b505050565b61077d83838360405180602001604052806000815250610998565b505050565b6000806002600084815260200190815260200160002060009054906101000a900473ffffffffffffffffffffffffffffffffffffffff169050600073ffffffffffffffffffffffffffffffffffffffff168173ffffffffffffffffffffffffffffffffffffffff160361082a576040517f08c379a00000000000000000000000000000000000000000000000000000000081526004016108219061203a565b60405180910390fd5b80915050919050565b60075481565b60008073ffffffffffffffffffffffffffffffffffffffff168273ffffffffffffffffffffffffffffffffffffffff16036108a9576040517f08c379a00000000000000000000000000000000000000000000000000000000081526004016108a0906120cc565b60405180910390fd5b600360008373ffffffffffffffffffffffffffffffffffffffff1673ffffffffffffffffffffffffffffffffffffffff168152602001908152602001600020549050919050565b6060600180546108ff90611cd8565b80601f016020809104026020016040519081016040528092919081815260200182805461092b90611cd8565b80156109785780601f1061094d57610100808354040283529160200191610978565b820191906000526020600020905b81548152906001019060200180831161095b57829003601f168201915b5050505050905090565b61099461098d610c15565b83836111f3565b5050565b6109a96109a3610c15565b83610eaf565b6109e8576040517f08c379a00000000000000000000000000000000000000000000000000000000081526004016109df90611fa8565b60405180910390fd5b6109f48484848461135f565b50505050565b6000600754905090565b6060610a0f82610ba9565b610a4e576040517f08c379a0000000000000000000000000000000000000000000000000000000008152600401610a459061215e565b60405180910390fd5b6000610a586113bb565b90506000815111610a785760405180602001604052806000815250610aa3565b80610a82846113d2565b604051602001610a939291906121ba565b6040516020818303038152906040525b915050919050565b6000600560008473ffffffffffffffffffffffffffffffffffffffff1673ffffffffffffffffffffffffffffffffffffffff16815260200190815260200160002060008373ffffffffffffffffffffffffffffffffffffffff1673ffffffffffffffffffffffffffffffffffffffff16815260200190815260200160002060009054906101000a900460ff16905092915050565b60007f01ffc9a7000000000000000000000000000000000000000000000000000000007bffffffffffffffffffffffffffffffffffffffffffffffffffffffff1916827bffffffffffffffffffffffffffffffffffffffffffffffffffffffff1916149050919050565b60008073ffffffffffffffffffffffffffffffffffffffff166002600084815260200190815260200160002060009054906101000a900473ffffffffffffffffffffffffffffffffffffffff1673ffffffffffffffffffffffffffffffffffffffff1614159050919050565b600033905090565b816004600083815260200190815260200160002060006101000a81548173ffffffffffffffffffffffffffffffffffffffff021916908373ffffffffffffffffffffffffffffffffffffffff160217905550808273ffffffffffffffffffffffffffffffffffffffff16610c9083610782565b73ffffffffffffffffffffffffffffffffffffffff167f8c5be1e5ebec7d5bd14f71427d1e84f3dd0314c0f7b2291e5b200ac8c7c3b92560405160405180910390a45050565b600073ffffffffffffffffffffffffffffffffffffffff168273ffffffffffffffffffffffffffffffffffffffff1603610d45576040517f08c379a0000000000000000000000000000000000000000000000000000000008152600401610d3c9061222a565b60405180910390fd5b610d4e81610ba9565b15610d8e576040517f08c379a0000000000000000000000000000000000000000000000000000000008152600401610d8590612296565b60405180910390fd5b610d9a60008383611532565b6001600360008473ffffffffffffffffffffffffffffffffffffffff1673ffffffffffffffffffffffffffffffffffffffff1681526020019081526020016000206000828254610dea91906122b6565b92505081905550816002600083815260200190815260200160002060006101000a81548173ffffffffffffffffffffffffffffffffffffffff021916908373ffffffffffffffffffffffffffffffffffffffff160217905550808273ffffffffffffffffffffffffffffffffffffffff16600073ffffffffffffffffffffffffffffffffffffffff167fddf252ad1be2c89b69c2b068fc378daa952ba7f163c4a11628f55a4df523b3ef60405160405180910390a4610eab60008383611537565b5050565b6000610eba82610ba9565b610ef9576040517f08c379a0000000000000000000000000000000000000000000000000000000008152600401610ef09061237e565b60405180910390fd5b6000610f0483610782565b90508073ffffffffffffffffffffffffffffffffffffffff168473ffffffffffffffffffffffffffffffffffffffff161480610f465750610f458185610aab565b5b80610f8457508373ffffffffffffffffffffffffffffffffffffffff16610f6c8461051f565b73ffffffffffffffffffffffffffffffffffffffff16145b91505092915050565b8273ffffffffffffffffffffffffffffffffffffffff16610fad82610782565b73ffffffffffffffffffffffffffffffffffffffff1614611003576040517f08c379a0000000000000000000000000000000000000000000000000000000008152600401610ffa90612410565b60405180910390fd5b600073ffffffffffffffffffffffffffffffffffffffff168273ffffffffffffffffffffffffffffffffffffffff1603611072576040517f08c379a0000000000000000000000000000000000000000000000000000000008152600401611069906124a2565b60405180910390fd5b61107d838383611532565b611088600082610c1d565b6001600360008573ffffffffffffffffffffffffffffffffffffffff1673ffffffffffffffffffffffffffffffffffffffff16815260200190815260200160002060008282546110d891906124c2565b925050819055506001600360008473ffffffffffffffffffffffffffffffffffffffff1673ffffffffffffffffffffffffffffffffffffffff168152602001908152602001600020600082825461112f91906122b6565b92505081905550816002600083815260200190815260200160002060006101000a81548173ffffffffffffffffffffffffffffffffffffffff021916908373ffffffffffffffffffffffffffffffffffffffff160217905550808273ffffffffffffffffffffffffffffffffffffffff168473ffffffffffffffffffffffffffffffffffffffff167fddf252ad1be2c89b69c2b068fc378daa952ba7f163c4a11628f55a4df523b3ef60405160405180910390a46111ee838383611537565b505050565b8173ffffffffffffffffffffffffffffffffffffffff168373ffffffffffffffffffffffffffffffffffffffff1603611261576040517f08c379a000000000000000000000000000000000000000000000000000000000815260040161125890612542565b60405180910390fd5b80600560008573ffffffffffffffffffffffffffffffffffffffff1673ffffffffffffffffffffffffffffffffffffffff16815260200190815260200160002060008473ffffffffffffffffffffffffffffffffffffffff1673ffffffffffffffffffffffffffffffffffffffff16815260200190815260200160002060006101000a81548160ff0219169083151502179055508173ffffffffffffffffffffffffffffffffffffffff168373ffffffffffffffffffffffffffffffffffffffff167f17307eab39ab6107e8899845ad3d59bd9653f200f220920489ca2b5937696c3183604051611352919061179a565b60405180910390a3505050565b61136a848484610f8d565b6113768484848461153c565b6113b5576040517f08c379a00000000000000000000000000000000000000000000000000000000081526004016113ac906125d4565b60405180910390fd5b50505050565b606060405180602001604052806000815250905090565b606060008203611419576040518060400160405280600181526020017f3000000000000000000000000000000000000000000000000000000000000000815250905061152d565b600082905060005b6000821461144b57808061143490611eee565b915050600a826114449190612623565b9150611421565b60008167ffffffffffffffff81111561146757611466611abb565b5b6040519080825280601f01601f1916602001820160405280156114995781602001600182028036833780820191505090505b5090505b60008514611526576001826114b291906124c2565b9150600a856114c19190612654565b60306114cd91906122b6565b60f81b8183815181106114e3576114e2612685565b5b60200101907effffffffffffffffffffffffffffffffffffffffffffffffffffffffffffff1916908160001a905350600a8561151f9190612623565b945061149d565b8093505050505b919050565b505050565b505050565b600061155d8473ffffffffffffffffffffffffffffffffffffffff166116c3565b156116b6578373ffffffffffffffffffffffffffffffffffffffff1663150b7a02611586610c15565b8786866040518563ffffffff1660e01b81526004016115a89493929190612709565b6020604051808303816000875af19250505080156115e457506040513d601f19601f820116820180604052508101906115e1919061276a565b60015b611666573d8060008114611614576040519150601f19603f3d011682016040523d82523d6000602084013e611619565b606091505b50600081510361165e576040517f08c379a0000000000000000000000000000000000000000000000000000000008152600401611655906125d4565b60405180910390fd5b805181602001fd5b63150b7a0260e01b7bffffffffffffffffffffffffffffffffffffffffffffffffffffffff1916817bffffffffffffffffffffffffffffffffffffffffffffffffffffffff1916149150506116bb565b600190505b949350505050565b6000808273ffffffffffffffffffffffffffffffffffffffff163b119050919050565b6000604051905090565b600080fd5b600080fd5b60007fffffffff0000000000000000000000000000000000000000000000000000000082169050919050565b61172f816116fa565b811461173a57600080fd5b50565b60008135905061174c81611726565b92915050565b600060208284031215611768576117676116f0565b5b60006117768482850161173d565b91505092915050565b60008115159050919050565b6117948161177f565b82525050565b60006020820190506117af600083018461178b565b92915050565b600081519050919050565b600082825260208201905092915050565b60005b838110156117ef5780820151818401526020810190506117d4565b838111156117fe576000848401525b50505050565b6000601f19601f8301169050919050565b6000611820826117b5565b61182a81856117c0565b935061183a8185602086016117d1565b61184381611804565b840191505092915050565b600060208201905081810360008301526118688184611815565b905092915050565b6000819050919050565b61188381611870565b811461188e57600080fd5b50565b6000813590506118a08161187a565b92915050565b6000602082840312156118bc576118bb6116f0565b5b60006118ca84828501611891565b91505092915050565b600073ffffffffffffffffffffffffffffffffffffffff82169050919050565b60006118fe826118d3565b9050919050565b61190e816118f3565b82525050565b60006020820190506119296000830184611905565b92915050565b611938816118f3565b811461194357600080fd5b50565b6000813590506119558161192f565b92915050565b60008060408385031215611972576119716116f0565b5b600061198085828601611946565b925050602061199185828601611891565b9150509250929050565b6119a481611870565b82525050565b60006020820190506119bf600083018461199b565b92915050565b6000806000606084860312156119de576119dd6116f0565b5b60006119ec86828701611946565b93505060206119fd86828701611946565b9250506040611a0e86828701611891565b9150509250925092565b600060208284031215611a2e57611a2d6116f0565b5b6000611a3c84828501611946565b91505092915050565b611a4e8161177f565b8114611a5957600080fd5b50565b600081359050611a6b81611a45565b92915050565b60008060408385031215611a8857611a876116f0565b5b6000611a9685828601611946565b9250506020611aa785828601611a5c565b9150509250929050565b600080fd5b600080fd5b7f4e487b7100000000000000000000000000000000000000000000000000000000600052604160045260246000fd5b611af382611804565b810181811067ffffffffffffffff82111715611b1257611b11611abb565b5b80604052505050565b6000611b256116e6565b9050611b318282611aea565b919050565b600067ffffffffffffffff821115611b5157611b50611abb565b5b611b5a82611804565b9050602081019050919050565b82818337600083830152505050565b6000611b89611b8484611b36565b611b1b565b905082815260208101848484011115611ba557611ba4611ab6565b5b611bb0848285611b67565b509392505050565b600082601f830112611bcd57611bcc611ab1565b5b8135611bdd848260208601611b76565b91505092915050565b60008060008060808587031215611c0057611bff6116f0565b5b6000611c0e87828801611946565b9450506020611c1f87828801611946565b9350506040611c3087828801611891565b925050606085013567ffffffffffffffff811115611c5157611c506116f5565b5b611c5d87828801611bb8565b91505092959194509250565b60008060408385031215611c8057611c7f6116f0565b5b6000611c8e85828601611946565b9250506020611c9f85828601611946565b9150509250929050565b7f4e487b7100000000000000000000000000000000000000000000000000000000600052602260045260246000fd5b60006002820490506001821680611cf057607f821691505b602082108103611d0357611d02611ca9565b5b50919050565b7f4552433732313a20617070726f76656420717565727920666f72206e6f6e657860008201527f697374656e7420746f6b656e0000000000000000000000000000000000000000602082015250565b6000611d65602c836117c0565b9150611d7082611d09565b604082019050919050565b60006020820190508181036000830152611d9481611d58565b9050919050565b7f4552433732313a20617070726f76616c20746f2063757272656e74206f776e6560008201527f7200000000000000000000000000000000000000000000000000000000000000602082015250565b6000611df76021836117c0565b9150611e0282611d9b565b604082019050919050565b60006020820190508181036000830152611e2681611dea565b9050919050565b7f4552433732313a20617070726f76652063616c6c6572206973206e6f74206f7760008201527f6e6572206e6f7220617070726f76656420666f7220616c6c0000000000000000602082015250565b6000611e896038836117c0565b9150611e9482611e2d565b604082019050919050565b60006020820190508181036000830152611eb881611e7c565b9050919050565b7f4e487b7100000000000000000000000000000000000000000000000000000000600052601160045260246000fd5b6000611ef982611870565b91507fffffffffffffffffffffffffffffffffffffffffffffffffffffffffffffffff8203611f2b57611f2a611ebf565b5b600182019050919050565b7f4552433732313a207472616e736665722063616c6c6572206973206e6f74206f60008201527f776e6572206e6f7220617070726f766564000000000000000000000000000000602082015250565b6000611f926031836117c0565b9150611f9d82611f36565b604082019050919050565b60006020820190508181036000830152611fc181611f85565b9050919050565b7f4552433732313a206f776e657220717565727920666f72206e6f6e657869737460008201527f656e7420746f6b656e0000000000000000000000000000000000000000000000602082015250565b60006120246029836117c0565b915061202f82611fc8565b604082019050919050565b6000602082019050818103600083015261205381612017565b9050919050565b7f4552433732313a2062616c616e636520717565727920666f7220746865207a6560008201527f726f206164647265737300000000000000000000000000000000000000000000602082015250565b60006120b6602a836117c0565b91506120c18261205a565b604082019050919050565b600060208201905081810360008301526120e5816120a9565b9050919050565b7f4552433732314d657461646174613a2055524920717565727920666f72206e6f60008201527f6e6578697374656e7420746f6b656e0000000000000000000000000000000000602082015250565b6000612148602f836117c0565b9150612153826120ec565b604082019050919050565b600060208201905081810360008301526121778161213b565b9050919050565b600081905092915050565b6000612194826117b5565b61219e818561217e565b93506121ae8185602086016117d1565b80840191505092915050565b60006121c68285612189565b91506121d28284612189565b91508190509392505050565b7f4552433732313a206d696e7420746f20746865207a65726f2061646472657373600082015250565b60006122146020836117c0565b915061221f826121de565b602082019050919050565b6000602082019050818103600083015261224381612207565b9050919050565b7f4552433732313a20746f6b656e20616c7265616479206d696e74656400000000600082015250565b6000612280601c836117c0565b915061228b8261224a565b602082019050919050565b600060208201905081810360008301526122af81612273565b9050919050565b60006122c182611870565b91506122cc83611870565b9250827fffffffffffffffffffffffffffffffffffffffffffffffffffffffffffffffff0382111561230157612300611ebf565b5b828201905092915050565b7f4552433732313a206f70657261746f7220717565727920666f72206e6f6e657860008201527f697374656e7420746f6b656e0000000000000000000000000000000000000000602082015250565b6000612368602c836117c0565b91506123738261230c565b604082019050919050565b600060208201905081810360008301526123978161235b565b9050919050565b7f4552433732313a207472616e736665722066726f6d20696e636f72726563742060008201527f6f776e6572000000000000000000000000000000000000000000000000000000602082015250565b60006123fa6025836117c0565b91506124058261239e565b604082019050919050565b60006020820190508181036000830152612429816123ed565b9050919050565b7f4552433732313a207472616e7366657220746f20746865207a65726f2061646460008201527f7265737300000000000000000000000000000000000000000000000000000000602082015250565b600061248c6024836117c0565b915061249782612430565b604082019050919050565b600060208201905081810360008301526124bb8161247f565b9050919050565b60006124cd82611870565b91506124d883611870565b9250828210156124eb576124ea611ebf565b5b828203905092915050565b7f4552433732313a20617070726f766520746f2063616c6c657200000000000000600082015250565b600061252c6019836117c0565b9150612537826124f6565b602082019050919050565b6000602082019050818103600083015261255b8161251f565b9050919050565b7f4552433732313a207472616e7366657220746f206e6f6e20455243373231526560008201527f63656976657220696d706c656d656e7465720000000000000000000000000000602082015250565b60006125be6032836117c0565b91506125c982612562565b604082019050919050565b600060208201905081810360008301526125ed816125b1565b9050919050565b7f4e487b7100000000000000000000000000000000000000000000000000000000600052601260045260246000fd5b600061262e82611870565b915061263983611870565b925082612649576126486125f4565b5b828204905092915050565b600061265f82611870565b915061266a83611870565b92508261267a576126796125f4565b5b828206905092915050565b7f4e487b7100000000000000000000000000000000000000000000000000000000600052603260045260246000fd5b600081519050919050565b600082825260208201905092915050565b60006126db826126b4565b6126e581856126bf565b93506126f58185602086016117d1565b6126fe81611804565b840191505092915050565b600060808201905061271e6000830187611905565b61272b6020830186611905565b612738604083018561199b565b818103606083015261274a81846126d0565b905095945050505050565b60008151905061276481611726565b92915050565b6000602082840312156127805761277f6116f0565b5b600061278e84828501612755565b9150509291505056fea2646970667358221220115f2bb927384ad2623987e2e4a7fdf2f361f5808dcc3b4700883865eff4586764736f6c634300080f0033",
  "immutableReferences": {},
  "source": "pragma solidity >=0.8.9;\r\n\r\nimport '@openzeppelin/contracts/token/ERC721/ERC721.sol';\r\n\r\ncontract NFT is ERC721 {\r\n  constructor() ERC721('Coolest NFT', 'NFT') {}\r\n\r\n  uint256 public tokenId = 0;\r\n  uint256 public mynumber = 0;\r\n  event log(uint256 mynum);\r\n\r\n  function mint() external returns (uint256) {\r\n    tokenId++;\r\n    _mint(msg.sender, tokenId);\r\n    return tokenId;\r\n  }\r\n\r\n  function enternum(uint256 mynuum) public returns (uint256) {\r\n    mynumber = mynuum;\r\n    return mynumber;\r\n    emit log(mynumber);\r\n  }\r\n\r\n  function myFunction() public returns (uint256) {\r\n    return mynumber;\r\n  }\r\n}\r\n",
  "sourcePath": "G:\\nft_web3_check\\contracts\\NFT.sol",
  "compiler": {
    "name": "solc",
    "version": "0.8.15+commit.e14f2714.Emscripten.clang"
  },
  "schemaVersion": "3.4.7",
  "updatedAt": "2022-07-02T15:28:06.486Z",
  "networkType": "ethereum",
  "devdoc": {
    "kind": "dev",
    "methods": {
      "approve(address,uint256)": {
        "details": "See {IERC721-approve}."
      },
      "balanceOf(address)": {
        "details": "See {IERC721-balanceOf}."
      },
      "getApproved(uint256)": {
        "details": "See {IERC721-getApproved}."
      },
      "isApprovedForAll(address,address)": {
        "details": "See {IERC721-isApprovedForAll}."
      },
      "name()": {
        "details": "See {IERC721Metadata-name}."
      },
      "ownerOf(uint256)": {
        "details": "See {IERC721-ownerOf}."
      },
      "safeTransferFrom(address,address,uint256)": {
        "details": "See {IERC721-safeTransferFrom}."
      },
      "safeTransferFrom(address,address,uint256,bytes)": {
        "details": "See {IERC721-safeTransferFrom}."
      },
      "setApprovalForAll(address,bool)": {
        "details": "See {IERC721-setApprovalForAll}."
      },
      "supportsInterface(bytes4)": {
        "details": "See {IERC165-supportsInterface}."
      },
      "symbol()": {
        "details": "See {IERC721Metadata-symbol}."
      },
      "tokenURI(uint256)": {
        "details": "See {IERC721Metadata-tokenURI}."
      },
      "transferFrom(address,address,uint256)": {
        "details": "See {IERC721-transferFrom}."
      }
    },
    "version": 1
  },
  "userdoc": {
    "kind": "user",
    "methods": {},
    "version": 1
  }
}