{
  "contractName": "token",
  "abi": [
    {
      "inputs": [],
      "stateMutability": "nonpayable",
      "type": "constructor"
    },
    {
      "anonymous": false,
      "inputs": [
        {
          "indexed": true,
          "internalType": "address",
          "name": "owner",
          "type": "address"
        },
        {
          "indexed": true,
          "internalType": "address",
          "name": "approved",
          "type": "address"
        },
        {
          "indexed": true,
          "internalType": "uint256",
          "name": "tokenId",
          "type": "uint256"
        }
      ],
      "name": "Approval",
      "type": "event"
    },
    {
      "anonymous": false,
      "inputs": [
        {
          "indexed": true,
          "internalType": "address",
          "name": "owner",
          "type": "address"
        },
        {
          "indexed": true,
          "internalType": "address",
          "name": "operator",
          "type": "address"
        },
        {
          "indexed": false,
          "internalType": "bool",
          "name": "approved",
          "type": "bool"
        }
      ],
      "name": "ApprovalForAll",
      "type": "event"
    },
    {
      "anonymous": false,
      "inputs": [
        {
          "indexed": true,
          "internalType": "address",
          "name": "from",
          "type": "address"
        },
        {
          "indexed": true,
          "internalType": "address",
          "name": "to",
          "type": "address"
        },
        {
          "indexed": true,
          "internalType": "uint256",
          "name": "tokenId",
          "type": "uint256"
        }
      ],
      "name": "Transfer",
      "type": "event"
    },
    {
      "anonymous": false,
      "inputs": [
        {
          "indexed": false,
          "internalType": "uint256",
          "name": "tokenID",
          "type": "uint256"
        },
        {
          "indexed": false,
          "internalType": "string",
          "name": "_mystring",
          "type": "string"
        },
        {
          "indexed": false,
          "internalType": "uint256",
          "name": "createdAt",
          "type": "uint256"
        }
      ],
      "name": "_purchasedByManufacturer",
      "type": "event"
    },
    {
      "anonymous": false,
      "inputs": [
        {
          "indexed": false,
          "internalType": "uint256",
          "name": "tokenID",
          "type": "uint256"
        },
        {
          "indexed": false,
          "internalType": "string",
          "name": "_mystring",
          "type": "string"
        },
        {
          "indexed": false,
          "internalType": "uint256",
          "name": "createdAt",
          "type": "uint256"
        }
      ],
      "name": "lognewItem",
      "type": "event"
    },
    {
      "anonymous": false,
      "inputs": [
        {
          "indexed": false,
          "internalType": "uint256",
          "name": "tokenID",
          "type": "uint256"
        },
        {
          "indexed": false,
          "internalType": "string",
          "name": "_mystring",
          "type": "string"
        },
        {
          "indexed": false,
          "internalType": "uint256",
          "name": "createdAt",
          "type": "uint256"
        }
      ],
      "name": "lognewNugget",
      "type": "event"
    },
    {
      "anonymous": false,
      "inputs": [
        {
          "indexed": false,
          "internalType": "uint256[]",
          "name": "tokenId",
          "type": "uint256[]"
        }
      ],
      "name": "newnugget",
      "type": "event"
    },
    {
      "inputs": [
        {
          "internalType": "address",
          "name": "to",
          "type": "address"
        },
        {
          "internalType": "uint256",
          "name": "tokenId",
          "type": "uint256"
        }
      ],
      "name": "approve",
      "outputs": [],
      "stateMutability": "nonpayable",
      "type": "function"
    },
    {
      "inputs": [
        {
          "internalType": "address",
          "name": "owner",
          "type": "address"
        }
      ],
      "name": "balanceOf",
      "outputs": [
        {
          "internalType": "uint256",
          "name": "",
          "type": "uint256"
        }
      ],
      "stateMutability": "view",
      "type": "function",
      "constant": true
    },
    {
      "inputs": [
        {
          "internalType": "uint256",
          "name": "tokenId",
          "type": "uint256"
        }
      ],
      "name": "getApproved",
      "outputs": [
        {
          "internalType": "address",
          "name": "",
          "type": "address"
        }
      ],
      "stateMutability": "view",
      "type": "function",
      "constant": true
    },
    {
      "inputs": [
        {
          "internalType": "address",
          "name": "owner",
          "type": "address"
        },
        {
          "internalType": "address",
          "name": "operator",
          "type": "address"
        }
      ],
      "name": "isApprovedForAll",
      "outputs": [
        {
          "internalType": "bool",
          "name": "",
          "type": "bool"
        }
      ],
      "stateMutability": "view",
      "type": "function",
      "constant": true
    },
    {
      "inputs": [],
      "name": "name",
      "outputs": [
        {
          "internalType": "string",
          "name": "",
          "type": "string"
        }
      ],
      "stateMutability": "view",
      "type": "function",
      "constant": true
    },
    {
      "inputs": [
        {
          "internalType": "uint256",
          "name": "tokenId",
          "type": "uint256"
        }
      ],
      "name": "ownerOf",
      "outputs": [
        {
          "internalType": "address",
          "name": "",
          "type": "address"
        }
      ],
      "stateMutability": "view",
      "type": "function",
      "constant": true
    },
    {
      "inputs": [
        {
          "internalType": "address",
          "name": "from",
          "type": "address"
        },
        {
          "internalType": "address",
          "name": "to",
          "type": "address"
        },
        {
          "internalType": "uint256",
          "name": "tokenId",
          "type": "uint256"
        }
      ],
      "name": "safeTransferFrom",
      "outputs": [],
      "stateMutability": "nonpayable",
      "type": "function"
    },
    {
      "inputs": [
        {
          "internalType": "address",
          "name": "from",
          "type": "address"
        },
        {
          "internalType": "address",
          "name": "to",
          "type": "address"
        },
        {
          "internalType": "uint256",
          "name": "tokenId",
          "type": "uint256"
        },
        {
          "internalType": "bytes",
          "name": "_data",
          "type": "bytes"
        }
      ],
      "name": "safeTransferFrom",
      "outputs": [],
      "stateMutability": "nonpayable",
      "type": "function"
    },
    {
      "inputs": [
        {
          "internalType": "address",
          "name": "operator",
          "type": "address"
        },
        {
          "internalType": "bool",
          "name": "approved",
          "type": "bool"
        }
      ],
      "name": "setApprovalForAll",
      "outputs": [],
      "stateMutability": "nonpayable",
      "type": "function"
    },
    {
      "inputs": [
        {
          "internalType": "bytes4",
          "name": "interfaceId",
          "type": "bytes4"
        }
      ],
      "name": "supportsInterface",
      "outputs": [
        {
          "internalType": "bool",
          "name": "",
          "type": "bool"
        }
      ],
      "stateMutability": "view",
      "type": "function",
      "constant": true
    },
    {
      "inputs": [],
      "name": "symbol",
      "outputs": [
        {
          "internalType": "string",
          "name": "",
          "type": "string"
        }
      ],
      "stateMutability": "view",
      "type": "function",
      "constant": true
    },
    {
      "inputs": [
        {
          "internalType": "uint256",
          "name": "tokenId",
          "type": "uint256"
        }
      ],
      "name": "tokenURI",
      "outputs": [
        {
          "internalType": "string",
          "name": "",
          "type": "string"
        }
      ],
      "stateMutability": "view",
      "type": "function",
      "constant": true
    },
    {
      "inputs": [
        {
          "internalType": "address",
          "name": "from",
          "type": "address"
        },
        {
          "internalType": "address",
          "name": "to",
          "type": "address"
        },
        {
          "internalType": "uint256",
          "name": "tokenId",
          "type": "uint256"
        }
      ],
      "name": "transferFrom",
      "outputs": [],
      "stateMutability": "nonpayable",
      "type": "function"
    },
    {
      "inputs": [
        {
          "internalType": "uint256",
          "name": "weight",
          "type": "uint256"
        },
        {
          "internalType": "uint256",
          "name": "flavor",
          "type": "uint256"
        },
        {
          "internalType": "uint256",
          "name": "qty",
          "type": "uint256"
        },
        {
          "internalType": "uint256",
          "name": "productType",
          "type": "uint256"
        }
      ],
      "name": "itemBySupplier",
      "outputs": [
        {
          "internalType": "uint256",
          "name": "",
          "type": "uint256"
        }
      ],
      "stateMutability": "nonpayable",
      "type": "function"
    },
    {
      "inputs": [
        {
          "internalType": "uint256",
          "name": "_tokenId",
          "type": "uint256"
        },
        {
          "internalType": "uint256",
          "name": "_price",
          "type": "uint256"
        }
      ],
      "name": "itemForSale",
      "outputs": [],
      "stateMutability": "nonpayable",
      "type": "function"
    },
    {
      "inputs": [
        {
          "internalType": "address",
          "name": "from",
          "type": "address"
        },
        {
          "internalType": "address",
          "name": "to",
          "type": "address"
        },
        {
          "internalType": "uint256",
          "name": "int_tokenID",
          "type": "uint256"
        }
      ],
      "name": "purchasedByManufacturer",
      "outputs": [],
      "stateMutability": "nonpayable",
      "type": "function"
    },
    {
      "inputs": [
        {
          "internalType": "uint256",
          "name": "int_tokenID",
          "type": "uint256"
        }
      ],
      "name": "shippedBySupplier",
      "outputs": [],
      "stateMutability": "nonpayable",
      "type": "function"
    },
    {
      "inputs": [
        {
          "internalType": "uint256",
          "name": "weight",
          "type": "uint256"
        },
        {
          "internalType": "uint256",
          "name": "flavor",
          "type": "uint256"
        },
        {
          "internalType": "uint256",
          "name": "qty",
          "type": "uint256"
        },
        {
          "internalType": "uint256",
          "name": "productType",
          "type": "uint256"
        },
        {
          "internalType": "uint256",
          "name": "int_tokenID",
          "type": "uint256"
        }
      ],
      "name": "packagedByManufacturer",
      "outputs": [
        {
          "internalType": "uint256",
          "name": "",
          "type": "uint256"
        }
      ],
      "stateMutability": "nonpayable",
      "type": "function"
    },
    {
      "inputs": [
        {
          "internalType": "address",
          "name": "sender",
          "type": "address"
        },
        {
          "internalType": "address",
          "name": "receiver",
          "type": "address"
        },
        {
          "internalType": "uint256",
          "name": "date",
          "type": "uint256"
        },
        {
          "internalType": "uint256",
          "name": "txn",
          "type": "uint256"
        }
      ],
      "name": "validate",
      "outputs": [
        {
          "internalType": "bool",
          "name": "valid",
          "type": "bool"
        }
      ],
      "stateMutability": "view",
      "type": "function",
      "constant": true
    }
  ],
  "bytecode": "0x60806040523480156200001157600080fd5b506040518060400160405280600b81526020017f737570706c79636861696e0000000000000000000000000000000000000000008152506040518060400160405280600381526020017f5343500000000000000000000000000000000000000000000000000000000000815250816000908051906020019062000096929190620000f9565b508060019080519060200190620000af929190620000f9565b50505033600660006101000a81548173ffffffffffffffffffffffffffffffffffffffff021916908373ffffffffffffffffffffffffffffffffffffffff1602179055506200020e565b8280546200010790620001a9565b90600052602060002090601f0160209004810192826200012b576000855562000177565b82601f106200014657805160ff191683800117855562000177565b8280016001018555821562000177579182015b828111156200017657825182559160200191906001019062000159565b5b5090506200018691906200018a565b5090565b5b80821115620001a55760008160009055506001016200018b565b5090565b60006002820490506001821680620001c257607f821691505b60208210811415620001d957620001d8620001df565b5b50919050565b7f4e487b7100000000000000000000000000000000000000000000000000000000600052602260045260246000fd5b61365d806200021e6000396000f3fe608060405234801561001057600080fd5b506004361061013e576000357c0100000000000000000000000000000000000000000000000000000000900480636352211e116100ca578063a22cb4651161008e578063a22cb46514610347578063b88d4fde14610363578063c87b56dd1461037f578063cd859165146103af578063e985e9c5146103df5761013e565b80636352211e1461027d57806370a08231146102ad5780637e469f0f146102dd57806395d89b41146102f957806397ce40c6146103175761013e565b8063095ea7b311610111578063095ea7b3146101dd5780631dddd834146101f957806323b872dd14610215578063255053a01461023157806342842e0e146102615761013e565b806301ffc9a71461014357806305b631131461017357806306fdde031461018f578063081812fc146101ad575b600080fd5b61015d60048036038101906101589190612379565b61040f565b60405161016a9190612e5c565b60405180910390f35b61018d600480360381019061018891906123cb565b6104f1565b005b610197610559565b6040516101a49190612e77565b60405180910390f35b6101c760048036038101906101c291906123cb565b6105eb565b6040516101d49190612dd3565b60405180910390f35b6101f760048036038101906101f29190612314565b610670565b005b610213600480360381019061020e91906123f4565b610788565b005b61022f600480360381019061022a91906121ab565b61081d565b005b61024b60048036038101906102469190612493565b61087d565b6040516102589190613079565b60405180910390f35b61027b600480360381019061027691906121ab565b610b7e565b005b610297600480360381019061029291906123cb565b610b9e565b6040516102a49190612dd3565b60405180910390f35b6102c760048036038101906102c29190612146565b610c50565b6040516102d49190613079565b60405180910390f35b6102f760048036038101906102f291906121ab565b610d08565b005b610301610e77565b60405161030e9190612e77565b60405180910390f35b610331600480360381019061032c9190612430565b610f09565b60405161033e9190613079565b60405180910390f35b610361600480360381019061035c91906122d8565b61115b565b005b61037d600480360381019061037891906121fa565b611171565b005b610399600480360381019061039491906123cb565b6111d3565b6040516103a69190612e77565b60405180910390f35b6103c960048036038101906103c49190612275565b61127a565b6040516103d69190612e5c565b60405180910390f35b6103f960048036038101906103f4919061216f565b611352565b6040516104069190612e5c565b60405180910390f35b60007f80ac58cd000000000000000000000000000000000000000000000000000000007bffffffffffffffffffffffffffffffffffffffffffffffffffffffff1916827bffffffffffffffffffffffffffffffffffffffffffffffffffffffff191614806104da57507f5b5e139f000000000000000000000000000000000000000000000000000000007bffffffffffffffffffffffffffffffffffffffffffffffffffffffff1916827bffffffffffffffffffffffffffffffffffffffffffffffffffffffff1916145b806104ea57506104e9826113e6565b5b9050919050565b6003600b600083815260200190815260200160002060010160146101000a81548160ff02191690836009811115610551577f4e487b7100000000000000000000000000000000000000000000000000000000600052602160045260246000fd5b021790555050565b606060008054610568906133ba565b80601f0160208091040260200160405190810160405280929190818152602001828054610594906133ba565b80156105e15780601f106105b6576101008083540402835291602001916105e1565b820191906000526020600020905b8154815290600101906020018083116105c457829003601f168201915b5050505050905090565b60006105f682611450565b610635576040517f08c379a000000000000000000000000000000000000000000000000000000000815260040161062c90612fd9565b60405180910390fd5b6004600083815260200190815260200160002060009054906101000a900473ffffffffffffffffffffffffffffffffffffffff169050919050565b600061067b82610b9e565b90508073ffffffffffffffffffffffffffffffffffffffff168373ffffffffffffffffffffffffffffffffffffffff1614156106ec576040517f08c379a00000000000000000000000000000000000000000000000000000000081526004016106e390613039565b60405180910390fd5b8073ffffffffffffffffffffffffffffffffffffffff1661070b6114bc565b73ffffffffffffffffffffffffffffffffffffffff16148061073a5750610739816107346114bc565b611352565b5b610779576040517f08c379a000000000000000000000000000000000000000000000000000000000815260040161077090612f59565b60405180910390fd5b61078383836114c4565b505050565b3373ffffffffffffffffffffffffffffffffffffffff166107a883610b9e565b73ffffffffffffffffffffffffffffffffffffffff16146107fe576040517f08c379a00000000000000000000000000000000000000000000000000000000081526004016107f590612ff9565b60405180910390fd5b80600b6000848152602001908152602001600020600201819055505050565b61082e6108286114bc565b8261157d565b61086d576040517f08c379a000000000000000000000000000000000000000000000000000000000815260040161086490613059565b60405180910390fd5b61087883838361165b565b505050565b60003373ffffffffffffffffffffffffffffffffffffffff1661089f83610b9e565b73ffffffffffffffffffffffffffffffffffffffff16146108bf57600080fd5b6002868686866040516020016108d89493929190612d85565b6040516020818303038152906040526040516108f49190612d4a565b602060405180830381855afa158015610911573d6000803e3d6000fd5b5050506040513d601f19601f820116820180604052508101906109349190612350565b600a819055506000600a54600190049050600060405180608001604052808381526020013373ffffffffffffffffffffffffffffffffffffffff168152602001600560098111156109ae577f4e487b7100000000000000000000000000000000000000000000000000000000600052602160045260246000fd5b815260200160098054806020026020016040519081016040528092919081815260200182805480156109ff57602002820191906000526020600020905b8154815260200190600101908083116109eb575b50505050508152509050600c6000838152602001908152602001600020600201849080600181540180825580915050600190039060005260206000200160009091909190915055610a5033836118c2565b7ff267f8421985ca820a7f7e6c52ddf9350f594d84b125f8529e294d75de82ed7c8242604051610a8192919061310c565b60405180910390a17fe1f68ca4e41fb5c6b51850453a6c5b549f7214372bd0b96899e6c621e8aea43d600c6000848152602001908152602001600020600201604051610acd9190612e3a565b60405180910390a16005600c600084815260200190815260200160002060010160146101000a81548160ff02191690836009811115610b35577f4e487b7100000000000000000000000000000000000000000000000000000000600052602160045260246000fd5b021790556009811115610b71577f4e487b7100000000000000000000000000000000000000000000000000000000600052602160045260246000fd5b9250505095945050505050565b610b9983838360405180602001604052806000815250611171565b505050565b6000806002600084815260200190815260200160002060009054906101000a900473ffffffffffffffffffffffffffffffffffffffff169050600073ffffffffffffffffffffffffffffffffffffffff168173ffffffffffffffffffffffffffffffffffffffff161415610c47576040517f08c379a0000000000000000000000000000000000000000000000000000000008152600401610c3e90612f99565b60405180910390fd5b80915050919050565b60008073ffffffffffffffffffffffffffffffffffffffff168273ffffffffffffffffffffffffffffffffffffffff161415610cc1576040517f08c379a0000000000000000000000000000000000000000000000000000000008152600401610cb890612f79565b60405180910390fd5b600360008373ffffffffffffffffffffffffffffffffffffffff1673ffffffffffffffffffffffffffffffffffffffff168152602001908152602001600020549050919050565b3382426002838383604051602001610d2293929190612d0d565b604051602081830303815290604052604051610d3e9190612d4a565b602060405180830381855afa158015610d5b573d6000803e3d6000fd5b5050506040513d601f19601f82011682018060405250810190610d7e9190612350565b600881905550600760085490806001815401808255809150506001900390600052602060002001600090919091909150556000600b60008681526020019081526020016000205050610dd1868686610b7e565b6002600b600086815260200190815260200160002060010160146101000a81548160ff02191690836009811115610e31577f4e487b7100000000000000000000000000000000000000000000000000000000600052602160045260246000fd5b02179055507fff56859972adb406f42c06aebd001be276748f9e78d2b9ec198eb9de867a66108442604051610e679291906130d0565b60405180910390a1505050505050565b606060018054610e86906133ba565b80601f0160208091040260200160405190810160405280929190818152602001828054610eb2906133ba565b8015610eff5780601f10610ed457610100808354040283529160200191610eff565b820191906000526020600020905b815481529060010190602001808311610ee257829003601f168201915b5050505050905090565b60008033426002838383604051602001610f2593929190612d0d565b604051602081830303815290604052604051610f419190612d4a565b602060405180830381855afa158015610f5e573d6000803e3d6000fd5b5050506040513d601f19601f82011682018060405250810190610f819190612350565b60088190555060076008549080600181540180825580915050600190039060005260206000200160009091909190915055600288888888604051602001610fcb9493929190612d85565b604051602081830303815290604052604051610fe79190612d4a565b602060405180830381855afa158015611004573d6000803e3d6000fd5b5050506040513d601f19601f820116820180604052508101906110279190612350565b600a819055506000600a54600190049050600060405180608001604052808381526020013373ffffffffffffffffffffffffffffffffffffffff168152602001600060098111156110a1577f4e487b7100000000000000000000000000000000000000000000000000000000600052602160045260246000fd5b8152602001600081525090506110b733836118c2565b7f468d023538269fccbc120aae017ba9d2c62ccb1253c1900b840bd8e2ae57d61a82426040516110e8929190613094565b60405180910390a1600b600083815260200190815260200160002060010160149054906101000a900460ff16600981111561114c577f4e487b7100000000000000000000000000000000000000000000000000000000600052602160045260246000fd5b95505050505050949350505050565b61116d6111666114bc565b8383611a9c565b5050565b61118261117c6114bc565b8361157d565b6111c1576040517f08c379a00000000000000000000000000000000000000000000000000000000081526004016111b890613059565b60405180910390fd5b6111cd84848484611c09565b50505050565b60606111de82611450565b61121d576040517f08c379a000000000000000000000000000000000000000000000000000000000815260040161121490613019565b60405180910390fd5b6000611227611c65565b905060008151116112475760405180602001604052806000815250611272565b8061125184611c7c565b604051602001611262929190612d61565b6040516020818303038152906040525b915050919050565b600080600286868660405160200161129493929190612d0d565b6040516020818303038152906040526040516112b09190612d4a565b602060405180830381855afa1580156112cd573d6000803e3d6000fd5b5050506040513d601f19601f820116820180604052508101906112f09190612350565b9050806007848154811061132d577f4e487b7100000000000000000000000000000000000000000000000000000000600052603260045260246000fd5b9060005260206000200154141561134857600191505061134a565b505b949350505050565b6000600560008473ffffffffffffffffffffffffffffffffffffffff1673ffffffffffffffffffffffffffffffffffffffff16815260200190815260200160002060008373ffffffffffffffffffffffffffffffffffffffff1673ffffffffffffffffffffffffffffffffffffffff16815260200190815260200160002060009054906101000a900460ff16905092915050565b60007f01ffc9a7000000000000000000000000000000000000000000000000000000007bffffffffffffffffffffffffffffffffffffffffffffffffffffffff1916827bffffffffffffffffffffffffffffffffffffffffffffffffffffffff1916149050919050565b60008073ffffffffffffffffffffffffffffffffffffffff166002600084815260200190815260200160002060009054906101000a900473ffffffffffffffffffffffffffffffffffffffff1673ffffffffffffffffffffffffffffffffffffffff1614159050919050565b600033905090565b816004600083815260200190815260200160002060006101000a81548173ffffffffffffffffffffffffffffffffffffffff021916908373ffffffffffffffffffffffffffffffffffffffff160217905550808273ffffffffffffffffffffffffffffffffffffffff1661153783610b9e565b73ffffffffffffffffffffffffffffffffffffffff167f8c5be1e5ebec7d5bd14f71427d1e84f3dd0314c0f7b2291e5b200ac8c7c3b92560405160405180910390a45050565b600061158882611450565b6115c7576040517f08c379a00000000000000000000000000000000000000000000000000000000081526004016115be90612f39565b60405180910390fd5b60006115d283610b9e565b90508073ffffffffffffffffffffffffffffffffffffffff168473ffffffffffffffffffffffffffffffffffffffff16148061164157508373ffffffffffffffffffffffffffffffffffffffff16611629846105eb565b73ffffffffffffffffffffffffffffffffffffffff16145b8061165257506116518185611352565b5b91505092915050565b8273ffffffffffffffffffffffffffffffffffffffff1661167b82610b9e565b73ffffffffffffffffffffffffffffffffffffffff16146116d1576040517f08c379a00000000000000000000000000000000000000000000000000000000081526004016116c890612eb9565b60405180910390fd5b600073ffffffffffffffffffffffffffffffffffffffff168273ffffffffffffffffffffffffffffffffffffffff161415611741576040517f08c379a000000000000000000000000000000000000000000000000000000000815260040161173890612ef9565b60405180910390fd5b61174c838383611e48565b6117576000826114c4565b6001600360008573ffffffffffffffffffffffffffffffffffffffff1673ffffffffffffffffffffffffffffffffffffffff16815260200190815260200160002060008282546117a791906132bc565b925050819055506001600360008473ffffffffffffffffffffffffffffffffffffffff1673ffffffffffffffffffffffffffffffffffffffff16815260200190815260200160002060008282546117fe9190613235565b92505081905550816002600083815260200190815260200160002060006101000a81548173ffffffffffffffffffffffffffffffffffffffff021916908373ffffffffffffffffffffffffffffffffffffffff160217905550808273ffffffffffffffffffffffffffffffffffffffff168473ffffffffffffffffffffffffffffffffffffffff167fddf252ad1be2c89b69c2b068fc378daa952ba7f163c4a11628f55a4df523b3ef60405160405180910390a46118bd838383611e4d565b505050565b600073ffffffffffffffffffffffffffffffffffffffff168273ffffffffffffffffffffffffffffffffffffffff161415611932576040517f08c379a000000000000000000000000000000000000000000000000000000000815260040161192990612fb9565b60405180910390fd5b61193b81611450565b1561197b576040517f08c379a000000000000000000000000000000000000000000000000000000000815260040161197290612ed9565b60405180910390fd5b61198760008383611e48565b6001600360008473ffffffffffffffffffffffffffffffffffffffff1673ffffffffffffffffffffffffffffffffffffffff16815260200190815260200160002060008282546119d79190613235565b92505081905550816002600083815260200190815260200160002060006101000a81548173ffffffffffffffffffffffffffffffffffffffff021916908373ffffffffffffffffffffffffffffffffffffffff160217905550808273ffffffffffffffffffffffffffffffffffffffff16600073ffffffffffffffffffffffffffffffffffffffff167fddf252ad1be2c89b69c2b068fc378daa952ba7f163c4a11628f55a4df523b3ef60405160405180910390a4611a9860008383611e4d565b5050565b8173ffffffffffffffffffffffffffffffffffffffff168373ffffffffffffffffffffffffffffffffffffffff161415611b0b576040517f08c379a0000000000000000000000000000000000000000000000000000000008152600401611b0290612f19565b60405180910390fd5b80600560008573ffffffffffffffffffffffffffffffffffffffff1673ffffffffffffffffffffffffffffffffffffffff16815260200190815260200160002060008473ffffffffffffffffffffffffffffffffffffffff1673ffffffffffffffffffffffffffffffffffffffff16815260200190815260200160002060006101000a81548160ff0219169083151502179055508173ffffffffffffffffffffffffffffffffffffffff168373ffffffffffffffffffffffffffffffffffffffff167f17307eab39ab6107e8899845ad3d59bd9653f200f220920489ca2b5937696c3183604051611bfc9190612e5c565b60405180910390a3505050565b611c1484848461165b565b611c2084848484611e52565b611c5f576040517f08c379a0000000000000000000000000000000000000000000000000000000008152600401611c5690612e99565b60405180910390fd5b50505050565b606060405180602001604052806000815250905090565b60606000821415611cc4576040518060400160405280600181526020017f30000000000000000000000000000000000000000000000000000000000000008152509050611e43565b600082905060005b60008214611cf6578080611cdf90613406565b915050600a82611cef919061328b565b9150611ccc565b60008167ffffffffffffffff811115611d38577f4e487b7100000000000000000000000000000000000000000000000000000000600052604160045260246000fd5b6040519080825280601f01601f191660200182016040528015611d6a5781602001600182028036833780820191505090505b5090505b60008514611e3c57600182611d8391906132bc565b9150600a85611d92919061347d565b6030611d9e9190613235565b7f010000000000000000000000000000000000000000000000000000000000000002818381518110611df9577f4e487b7100000000000000000000000000000000000000000000000000000000600052603260045260246000fd5b60200101907effffffffffffffffffffffffffffffffffffffffffffffffffffffffffffff1916908160001a905350600a85611e35919061328b565b9450611d6e565b8093505050505b919050565b505050565b505050565b6000611e738473ffffffffffffffffffffffffffffffffffffffff16612021565b15612014578373ffffffffffffffffffffffffffffffffffffffff1663150b7a02611e9c6114bc565b8786866040518563ffffffff167c0100000000000000000000000000000000000000000000000000000000028152600401611eda9493929190612dee565b602060405180830381600087803b158015611ef457600080fd5b505af1925050508015611f2557506040513d601f19601f82011682018060405250810190611f2291906123a2565b60015b611fa8573d8060008114611f55576040519150601f19603f3d011682016040523d82523d6000602084013e611f5a565b606091505b50600081511415611fa0576040517f08c379a0000000000000000000000000000000000000000000000000000000008152600401611f9790612e99565b60405180910390fd5b805181602001fd5b63150b7a027c0100000000000000000000000000000000000000000000000000000000027bffffffffffffffffffffffffffffffffffffffffffffffffffffffff1916817bffffffffffffffffffffffffffffffffffffffffffffffffffffffff191614915050612019565b600190505b949350505050565b6000808273ffffffffffffffffffffffffffffffffffffffff16803b806020016040519081016040528181526000908060200190933c51119050919050565b600061207361206e84613179565b613148565b90508281526020810184848401111561208b57600080fd5b612096848285613378565b509392505050565b6000813590506120ad816135b4565b92915050565b6000813590506120c2816135cb565b92915050565b6000815190506120d7816135e2565b92915050565b6000813590506120ec816135f9565b92915050565b600081519050612101816135f9565b92915050565b600082601f83011261211857600080fd5b8135612128848260208601612060565b91505092915050565b60008135905061214081613610565b92915050565b60006020828403121561215857600080fd5b60006121668482850161209e565b91505092915050565b6000806040838503121561218257600080fd5b60006121908582860161209e565b92505060206121a18582860161209e565b9150509250929050565b6000806000606084860312156121c057600080fd5b60006121ce8682870161209e565b93505060206121df8682870161209e565b92505060406121f086828701612131565b9150509250925092565b6000806000806080858703121561221057600080fd5b600061221e8782880161209e565b945050602061222f8782880161209e565b935050604061224087828801612131565b925050606085013567ffffffffffffffff81111561225d57600080fd5b61226987828801612107565b91505092959194509250565b6000806000806080858703121561228b57600080fd5b60006122998782880161209e565b94505060206122aa8782880161209e565b93505060406122bb87828801612131565b92505060606122cc87828801612131565b91505092959194509250565b600080604083850312156122eb57600080fd5b60006122f98582860161209e565b925050602061230a858286016120b3565b9150509250929050565b6000806040838503121561232757600080fd5b60006123358582860161209e565b925050602061234685828601612131565b9150509250929050565b60006020828403121561236257600080fd5b6000612370848285016120c8565b91505092915050565b60006020828403121561238b57600080fd5b6000612399848285016120dd565b91505092915050565b6000602082840312156123b457600080fd5b60006123c2848285016120f2565b91505092915050565b6000602082840312156123dd57600080fd5b60006123eb84828501612131565b91505092915050565b6000806040838503121561240757600080fd5b600061241585828601612131565b925050602061242685828601612131565b9150509250929050565b6000806000806080858703121561244657600080fd5b600061245487828801612131565b945050602061246587828801612131565b935050604061247687828801612131565b925050606061248787828801612131565b91505092959194509250565b600080600080600060a086880312156124ab57600080fd5b60006124b988828901612131565b95505060206124ca88828901612131565b94505060406124db88828901612131565b93505060606124ec88828901612131565b92505060806124fd88828901612131565b9150509295509295909350565b60006125168383612cd8565b60208301905092915050565b61252b816132fa565b82525050565b61254261253d826132fa565b61344f565b82525050565b6000612553826131be565b61255d81856131ec565b9350612568836131a9565b8060005b838110156125a05761257d8261356a565b612587888261250a565b9750612592836131df565b92505060018101905061256c565b5085935050505092915050565b6125b68161330c565b82525050565b60006125c7826131c9565b6125d181856131fd565b93506125e1818560208601613387565b6125ea8161357d565b840191505092915050565b6000612600826131c9565b61260a818561320e565b935061261a818560208601613387565b80840191505092915050565b6000612631826131d4565b61263b8185613219565b935061264b818560208601613387565b6126548161357d565b840191505092915050565b600061266a826131d4565b612674818561322a565b9350612684818560208601613387565b80840191505092915050565b600061269d603283613219565b91507f4552433732313a207472616e7366657220746f206e6f6e20455243373231526560008301527f63656976657220696d706c656d656e74657200000000000000000000000000006020830152604082019050919050565b6000612703602583613219565b91507f4552433732313a207472616e736665722066726f6d20696e636f72726563742060008301527f6f776e65720000000000000000000000000000000000000000000000000000006020830152604082019050919050565b6000612769601c83613219565b91507f4552433732313a20746f6b656e20616c7265616479206d696e746564000000006000830152602082019050919050565b60006127a9602483613219565b91507f4552433732313a207472616e7366657220746f20746865207a65726f2061646460008301527f72657373000000000000000000000000000000000000000000000000000000006020830152604082019050919050565b600061280f601983613219565b91507f4552433732313a20617070726f766520746f2063616c6c6572000000000000006000830152602082019050919050565b600061284f602c83613219565b91507f4552433732313a206f70657261746f7220717565727920666f72206e6f6e657860008301527f697374656e7420746f6b656e00000000000000000000000000000000000000006020830152604082019050919050565b60006128b5603883613219565b91507f4552433732313a20617070726f76652063616c6c6572206973206e6f74206f7760008301527f6e6572206e6f7220617070726f76656420666f7220616c6c00000000000000006020830152604082019050919050565b600061291b602a83613219565b91507f4552433732313a2062616c616e636520717565727920666f7220746865207a6560008301527f726f2061646472657373000000000000000000000000000000000000000000006020830152604082019050919050565b6000612981602983613219565b91507f4552433732313a206f776e657220717565727920666f72206e6f6e657869737460008301527f656e7420746f6b656e00000000000000000000000000000000000000000000006020830152604082019050919050565b60006129e7601883613219565b91507f4974656d206372656174656420627920737570706c69657200000000000000006000830152602082019050919050565b6000612a27602083613219565b91507f4552433732313a206d696e7420746f20746865207a65726f20616464726573736000830152602082019050919050565b6000612a67602c83613219565b91507f4552433732313a20617070726f76656420717565727920666f72206e6f6e657860008301527f697374656e7420746f6b656e00000000000000000000000000000000000000006020830152604082019050919050565b6000612acd602783613219565b91507f596f752063616e27742073616c6520746865206974656d20796f7520646f6e2760008301527f74206f776e6564000000000000000000000000000000000000000000000000006020830152604082019050919050565b6000612b33602f83613219565b91507f4552433732314d657461646174613a2055524920717565727920666f72206e6f60008301527f6e6578697374656e7420746f6b656e00000000000000000000000000000000006020830152604082019050919050565b6000612b99602183613219565b91507f4552433732313a20617070726f76616c20746f2063757272656e74206f776e6560008301527f72000000000000000000000000000000000000000000000000000000000000006020830152604082019050919050565b6000612bff601e83613219565b91507f4974656d20707572636861736564206279204d616e75666163747572657200006000830152602082019050919050565b6000612c3f603183613219565b91507f4552433732313a207472616e736665722063616c6c6572206973206e6f74206f60008301527f776e6572206e6f7220617070726f7665640000000000000000000000000000006020830152604082019050919050565b6000612ca5601d83613219565b91507f4974656d207061636b61676564206279204d616e7566616374757265720000006000830152602082019050919050565b612ce18161336e565b82525050565b612cf08161336e565b82525050565b612d07612d028261336e565b613473565b82525050565b6000612d198286612531565b601482019150612d298285612531565b601482019150612d398284612cf6565b602082019150819050949350505050565b6000612d5682846125f5565b915081905092915050565b6000612d6d828561265f565b9150612d79828461265f565b91508190509392505050565b6000612d918287612cf6565b602082019150612da18286612cf6565b602082019150612db18285612cf6565b602082019150612dc18284612cf6565b60208201915081905095945050505050565b6000602082019050612de86000830184612522565b92915050565b6000608082019050612e036000830187612522565b612e106020830186612522565b612e1d6040830185612ce7565b8181036060830152612e2f81846125bc565b905095945050505050565b60006020820190508181036000830152612e548184612548565b905092915050565b6000602082019050612e7160008301846125ad565b92915050565b60006020820190508181036000830152612e918184612626565b905092915050565b60006020820190508181036000830152612eb281612690565b9050919050565b60006020820190508181036000830152612ed2816126f6565b9050919050565b60006020820190508181036000830152612ef28161275c565b9050919050565b60006020820190508181036000830152612f128161279c565b9050919050565b60006020820190508181036000830152612f3281612802565b9050919050565b60006020820190508181036000830152612f5281612842565b9050919050565b60006020820190508181036000830152612f72816128a8565b9050919050565b60006020820190508181036000830152612f928161290e565b9050919050565b60006020820190508181036000830152612fb281612974565b9050919050565b60006020820190508181036000830152612fd281612a1a565b9050919050565b60006020820190508181036000830152612ff281612a5a565b9050919050565b6000602082019050818103600083015261301281612ac0565b9050919050565b6000602082019050818103600083015261303281612b26565b9050919050565b6000602082019050818103600083015261305281612b8c565b9050919050565b6000602082019050818103600083015261307281612c32565b9050919050565b600060208201905061308e6000830184612ce7565b92915050565b60006060820190506130a96000830185612ce7565b81810360208301526130ba816129da565b90506130c96040830184612ce7565b9392505050565b60006060820190506130e56000830185612ce7565b81810360208301526130f681612bf2565b90506131056040830184612ce7565b9392505050565b60006060820190506131216000830185612ce7565b818103602083015261313281612c98565b90506131416040830184612ce7565b9392505050565b6000604051905081810181811067ffffffffffffffff8211171561316f5761316e61353b565b5b8060405250919050565b600067ffffffffffffffff8211156131945761319361353b565b5b601f19601f8301169050602081019050919050565b60008190508160005260206000209050919050565b600081549050919050565b600081519050919050565b600081519050919050565b6000600182019050919050565b600082825260208201905092915050565b600082825260208201905092915050565b600081905092915050565b600082825260208201905092915050565b600081905092915050565b60006132408261336e565b915061324b8361336e565b9250827fffffffffffffffffffffffffffffffffffffffffffffffffffffffffffffffff038211156132805761327f6134ae565b5b828201905092915050565b60006132968261336e565b91506132a18361336e565b9250826132b1576132b06134dd565b5b828204905092915050565b60006132c78261336e565b91506132d28361336e565b9250828210156132e5576132e46134ae565b5b828203905092915050565b6000819050919050565b60006133058261334e565b9050919050565b60008115159050919050565b6000819050919050565b60007fffffffff0000000000000000000000000000000000000000000000000000000082169050919050565b600073ffffffffffffffffffffffffffffffffffffffff82169050919050565b6000819050919050565b82818337600083830152505050565b60005b838110156133a557808201518184015260208101905061338a565b838111156133b4576000848401525b50505050565b600060028204905060018216806133d257607f821691505b602082108114156133e6576133e561350c565b5b50919050565b60006133ff6133fa836135a7565b6132f0565b9050919050565b60006134118261336e565b91507fffffffffffffffffffffffffffffffffffffffffffffffffffffffffffffffff821415613444576134436134ae565b5b600182019050919050565b600061345a82613461565b9050919050565b600061346c8261358e565b9050919050565b6000819050919050565b60006134888261336e565b91506134938361336e565b9250826134a3576134a26134dd565b5b828206905092915050565b7f4e487b7100000000000000000000000000000000000000000000000000000000600052601160045260246000fd5b7f4e487b7100000000000000000000000000000000000000000000000000000000600052601260045260246000fd5b7f4e487b7100000000000000000000000000000000000000000000000000000000600052602260045260246000fd5b7f4e487b7100000000000000000000000000000000000000000000000000000000600052604160045260246000fd5b600061357682546133ec565b9050919050565b6000601f19601f8301169050919050565b60006c0100000000000000000000000082029050919050565b6000600182049050919050565b6135bd816132fa565b81146135c857600080fd5b50565b6135d48161330c565b81146135df57600080fd5b50565b6135eb81613318565b81146135f657600080fd5b50565b61360281613322565b811461360d57600080fd5b50565b6136198161336e565b811461362457600080fd5b5056fea26469706673582212209559852a141110d798decb49d4f341df2891f10d8ed3fc50a71a7b7c6c95478064736f6c63430008000033",
  "immutableReferences": {},
  "source": "// SPDX-License-Identifier: GPL-3.0\r\npragma solidity >=0.4.20;\r\nimport '@openzeppelin/contracts/token/ERC721/ERC721.sol';\r\n\r\n// import '@openzeppelin/contracts/token/ERC721/extensions/IERC721Metadata.sol';\r\n\r\ncontract token is ERC721 {\r\n  address contractOwner;\r\n  bytes32[] array_proof;\r\n  bytes32 hash;\r\n  uint256[] rawItems;\r\n\r\n  constructor() public ERC721('supplychain', 'SCP') {\r\n    contractOwner = msg.sender;\r\n  }\r\n\r\n  bytes32 tokenID;\r\n  enum State {\r\n    producedBySupplier,\r\n    forSaleBySupplier,\r\n    purchasedByManufacturer,\r\n    shippedBySupplier,\r\n    receivedByManufacturer,\r\n    packagedByManufacturer,\r\n    forSaleByManufacturer,\r\n    purchasedByRetailer,\r\n    shippedByManufacturer,\r\n    receivedByRetailer\r\n  }\r\n  struct Item {\r\n    uint256 product_code;\r\n    address ownerID;\r\n    State itemState;\r\n    uint256 price;\r\n  }\r\n  struct Nugget {\r\n    uint256 product_code;\r\n    address ownerID;\r\n    State NuggetState;\r\n    uint256[] items;\r\n  }\r\n\r\n  //hashtable----------------------------------\r\n  mapping(uint256 => Item) itemInfo;\r\n\r\n  // mapping(uint => Item) itemforSale;\r\n  mapping(uint256 => Nugget) nuggetInfo;\r\n  mapping(uint256 => uint256) nuggetMap;\r\n\r\n  //events--------------------------------\r\n  event lognewItem(uint256 tokenID, string _mystring, uint256 createdAt); //create new item by supplier\r\n  event lognewNugget(uint256 tokenID, string _mystring, uint256 createdAt);\r\n  event _purchasedByManufacturer(\r\n    uint256 tokenID,\r\n    string _mystring,\r\n    uint256 createdAt\r\n  );\r\n  event newnugget(uint256[] tokenId);\r\n  //modiifer --------------------\r\n  modifier arrayproof(\r\n    address sender,\r\n    address receiver,\r\n    uint256 createdAt\r\n  ) {\r\n    hash = sha256(abi.encodePacked(sender, receiver, createdAt));\r\n    array_proof.push(hash);\r\n    _;\r\n  }\r\n\r\n  function itemBySupplier(\r\n    uint256 weight,\r\n    uint256 flavor,\r\n    uint256 qty,\r\n    uint256 productType\r\n  )\r\n    public\r\n    arrayproof(address(0), msg.sender, block.timestamp)\r\n    returns (uint256)\r\n  {\r\n    // uint i;\r\n\r\n    tokenID = sha256(abi.encodePacked(weight, flavor, qty, productType)); // in hash\r\n    uint256 int_tokenID = uint256(tokenID); // convert hash to integer\r\n    Item memory newItem = Item(\r\n      int_tokenID, //typecast hash into uint256\r\n      msg.sender,\r\n      State.producedBySupplier,\r\n      uint256(0)\r\n    );\r\n    _mint(msg.sender, int_tokenID);\r\n    emit lognewItem(int_tokenID, 'Item created by supplier', block.timestamp);\r\n    return (uint256(itemInfo[int_tokenID].itemState));\r\n  }\r\n\r\n  // sha256 is not bytes32 need to convert\r\n  function itemForSale(uint256 _tokenId, uint256 _price) public {\r\n    require(\r\n      ownerOf(uint256(_tokenId)) == msg.sender,\r\n      \"You can't sale the item you don't owned\"\r\n    );\r\n\r\n    itemInfo[uint256(_tokenId)].price = _price; //assigning price to that item\r\n  }\r\n\r\n  function purchasedByManufacturer(\r\n    address from,\r\n    address to,\r\n    uint256 int_tokenID\r\n  ) public arrayproof(msg.sender, to, block.timestamp) {\r\n    (\r\n      (uint256(itemInfo[int_tokenID].price)) > 0,\r\n      'The item should be up for sale'\r\n    );\r\n    safeTransferFrom(from, to, int_tokenID);\r\n    itemInfo[int_tokenID].itemState = State.purchasedByManufacturer;\r\n    emit _purchasedByManufacturer(\r\n      int_tokenID,\r\n      'Item purchased by Manufacturer',\r\n      block.timestamp\r\n    );\r\n  }\r\n\r\n  function shippedBySupplier(uint256 int_tokenID) public {\r\n    //to be seen again based on states\r\n    itemInfo[(int_tokenID)].itemState = State.shippedBySupplier;\r\n  }\r\n\r\n  function packagedByManufacturer(\r\n    uint256 weight,\r\n    uint256 flavor,\r\n    uint256 qty,\r\n    uint256 productType,\r\n    uint256 int_tokenID\r\n  ) public returns (uint256) {\r\n    require(ownerOf(int_tokenID) == msg.sender);\r\n    tokenID = sha256(abi.encodePacked(weight, flavor, qty, productType));\r\n    uint256 uint_tokenID = uint256(tokenID);\r\n    //  rawItems =items.push(itemInfo[_rawTokenID]);\r\n    Nugget memory newNugget = Nugget(\r\n      uint256(uint_tokenID),\r\n      msg.sender,\r\n      State.packagedByManufacturer,\r\n      rawItems\r\n    );\r\n\r\n    nuggetInfo[uint_tokenID].items.push(int_tokenID);\r\n    _mint(msg.sender, uint_tokenID);\r\n    emit lognewNugget(\r\n      uint_tokenID,\r\n      'Item packaged by Manufacturer',\r\n      block.timestamp\r\n    );\r\n    emit newnugget(nuggetInfo[uint_tokenID].items);\r\n\r\n    return (\r\n      uint256(\r\n        nuggetInfo[uint_tokenID].NuggetState = State.packagedByManufacturer\r\n      )\r\n    );\r\n  }\r\n\r\n  function validate(\r\n    address sender,\r\n    address receiver,\r\n    uint256 date,\r\n    uint256 txn\r\n  ) public view returns (bool valid) {\r\n    bytes32 hash_new = (sha256(abi.encodePacked(sender, receiver, date)));\r\n    if (array_proof[txn] == hash_new) {\r\n      return (true);\r\n    }\r\n\r\n    // forsale by supplier will be used for sale by manufacturer\r\n  }\r\n}\r\n",
  "sourcePath": "C:\\Users\\dell\\OneDrive\\Documents\\fyp\\mealProof_contract\\contracts\\midyear.sol",
  "compiler": {
    "name": "solc",
    "version": "0.8.0+commit.c7dfd78e.Emscripten.clang"
  },
  "schemaVersion": "3.4.7",
  "updatedAt": "2022-07-02T08:10:49.832Z",
  "networkType": "ethereum",
  "devdoc": {
    "kind": "dev",
    "methods": {
      "approve(address,uint256)": {
        "details": "See {IERC721-approve}."
      },
      "balanceOf(address)": {
        "details": "See {IERC721-balanceOf}."
      },
      "getApproved(uint256)": {
        "details": "See {IERC721-getApproved}."
      },
      "isApprovedForAll(address,address)": {
        "details": "See {IERC721-isApprovedForAll}."
      },
      "name()": {
        "details": "See {IERC721Metadata-name}."
      },
      "ownerOf(uint256)": {
        "details": "See {IERC721-ownerOf}."
      },
      "safeTransferFrom(address,address,uint256)": {
        "details": "See {IERC721-safeTransferFrom}."
      },
      "safeTransferFrom(address,address,uint256,bytes)": {
        "details": "See {IERC721-safeTransferFrom}."
      },
      "setApprovalForAll(address,bool)": {
        "details": "See {IERC721-setApprovalForAll}."
      },
      "supportsInterface(bytes4)": {
        "details": "See {IERC165-supportsInterface}."
      },
      "symbol()": {
        "details": "See {IERC721Metadata-symbol}."
      },
      "tokenURI(uint256)": {
        "details": "See {IERC721Metadata-tokenURI}."
      },
      "transferFrom(address,address,uint256)": {
        "details": "See {IERC721-transferFrom}."
      }
    },
    "version": 1
  },
  "userdoc": {
    "kind": "user",
    "methods": {},
    "version": 1
  }
}